{
  "contractName": "OrderEscrow",
  "abi": [
    {
      "constant": false,
      "inputs": [
        {
          "name": "_newOwner",
          "type": "address"
        }
      ],
      "name": "setOwner",
      "outputs": [],
      "payable": false,
      "stateMutability": "nonpayable",
      "type": "function"
    },
    {
      "constant": true,
      "inputs": [],
      "name": "owner",
      "outputs": [
        {
          "name": "",
          "type": "address"
        }
      ],
      "payable": false,
      "stateMutability": "view",
      "type": "function"
    },
    {
      "inputs": [],
      "payable": false,
      "stateMutability": "nonpayable",
      "type": "constructor"
    },
    {
      "anonymous": false,
      "inputs": [
        {
          "indexed": false,
          "name": "owner",
          "type": "address"
        },
        {
          "indexed": false,
          "name": "_tokenAddr",
          "type": "address"
        },
        {
          "indexed": false,
          "name": "_tokenName",
          "type": "bytes32"
        },
        {
          "indexed": false,
          "name": "timestamp",
          "type": "uint256"
        }
      ],
      "name": "TokenRegister",
      "type": "event"
    },
    {
      "anonymous": false,
      "inputs": [
        {
          "indexed": false,
          "name": "sender",
          "type": "address"
        },
        {
          "indexed": false,
          "name": "orderID",
          "type": "bytes32"
        },
        {
          "indexed": false,
          "name": "_tokenAddr",
          "type": "address"
        },
        {
          "indexed": false,
          "name": "_tokenName",
          "type": "bytes32"
        },
        {
          "indexed": false,
          "name": "_lockedAmount",
          "type": "uint256"
        },
        {
          "indexed": false,
          "name": "_buyer",
          "type": "address"
        },
        {
          "indexed": false,
          "name": "timestamp",
          "type": "uint256"
        }
      ],
      "name": "MakeOrder",
      "type": "event"
    },
    {
      "anonymous": false,
      "inputs": [
        {
          "indexed": false,
          "name": "sender",
          "type": "address"
        },
        {
          "indexed": false,
          "name": "orderID",
          "type": "bytes32"
        },
        {
          "indexed": false,
          "name": "lockedAmount",
          "type": "uint256"
        },
        {
          "indexed": false,
          "name": "timestamp",
          "type": "uint256"
        }
      ],
      "name": "CancelOrder",
      "type": "event"
    },
    {
      "anonymous": false,
      "inputs": [
        {
          "indexed": false,
          "name": "sender",
          "type": "address"
        },
        {
          "indexed": false,
          "name": "buyer",
          "type": "address"
        },
        {
          "indexed": false,
          "name": "orderID",
          "type": "bytes32"
        },
        {
          "indexed": false,
          "name": "lockedAmount",
          "type": "uint256"
        },
        {
          "indexed": false,
          "name": "timestamp",
          "type": "uint256"
        }
      ],
      "name": "ConfirmOrder",
      "type": "event"
    },
    {
      "anonymous": false,
      "inputs": [
        {
          "indexed": true,
          "name": "old",
          "type": "address"
        },
        {
          "indexed": true,
          "name": "current",
          "type": "address"
        }
      ],
      "name": "OwnerChanged",
      "type": "event"
    },
    {
      "constant": false,
      "inputs": [
        {
          "name": "_tokenName",
          "type": "bytes32"
        },
        {
          "name": "_amount",
          "type": "uint256"
        },
        {
          "name": "orderID",
          "type": "bytes32"
        },
        {
          "name": "_buyer",
          "type": "address"
        }
      ],
      "name": "makeOrder",
      "outputs": [],
      "payable": false,
      "stateMutability": "nonpayable",
      "type": "function"
    },
    {
      "constant": false,
      "inputs": [
        {
          "name": "orderID",
          "type": "bytes32"
        }
      ],
      "name": "cancelOrder",
      "outputs": [],
      "payable": false,
      "stateMutability": "nonpayable",
      "type": "function"
    },
    {
      "constant": false,
      "inputs": [
        {
          "name": "orderID",
          "type": "bytes32"
        },
        {
          "name": "_buyer",
          "type": "address"
        }
      ],
      "name": "confirmOrder",
      "outputs": [],
      "payable": false,
      "stateMutability": "nonpayable",
      "type": "function"
    },
    {
      "constant": true,
      "inputs": [
        {
          "name": "orderID",
          "type": "bytes32"
        }
      ],
      "name": "getOrderData",
      "outputs": [
        {
          "name": "",
          "type": "bytes32"
        },
        {
          "name": "",
          "type": "uint256"
        },
        {
          "name": "",
          "type": "uint256"
        },
        {
          "name": "",
          "type": "address"
        },
        {
          "name": "",
          "type": "bytes4"
        }
      ],
      "payable": false,
      "stateMutability": "view",
      "type": "function"
    },
    {
      "constant": true,
      "inputs": [
        {
          "name": "orderID",
          "type": "bytes32"
        }
      ],
      "name": "getOrderLeftTime",
      "outputs": [
        {
          "name": "",
          "type": "uint256"
        }
      ],
      "payable": false,
      "stateMutability": "view",
      "type": "function"
    },
    {
      "constant": false,
      "inputs": [
        {
          "name": "symbol_",
          "type": "bytes32"
        },
        {
          "name": "address_",
          "type": "address"
        }
      ],
      "name": "addNewToken",
      "outputs": [
        {
          "name": "",
          "type": "bool"
        }
      ],
      "payable": false,
      "stateMutability": "nonpayable",
      "type": "function"
    }
  ],
  "bytecode": "0x6080604052336000806101000a81548173ffffffffffffffffffffffffffffffffffffffff021916908373ffffffffffffffffffffffffffffffffffffffff16021790555034801561005057600080fd5b50611a07806100606000396000f30060806040526004361061008e576000357c0100000000000000000000000000000000000000000000000000000000900463ffffffff16806313af403514610093578063226c8daa146100d65780637489ec231461013f5780638da5cb5b14610170578063b082443b146101c7578063ec49654814610230578063fb4d314414610281578063fe3b191b14610354575b600080fd5b34801561009f57600080fd5b506100d4600480360381019080803573ffffffffffffffffffffffffffffffffffffffff169060200190929190505050610399565b005b3480156100e257600080fd5b5061013d6004803603810190808035600019169060200190929190803590602001909291908035600019169060200190929190803573ffffffffffffffffffffffffffffffffffffffff1690602001909291905050506104b2565b005b34801561014b57600080fd5b5061016e6004803603810190808035600019169060200190929190505050610cb1565b005b34801561017c57600080fd5b5061018561119b565b604051808273ffffffffffffffffffffffffffffffffffffffff1673ffffffffffffffffffffffffffffffffffffffff16815260200191505060405180910390f35b3480156101d357600080fd5b506102166004803603810190808035600019169060200190929190803573ffffffffffffffffffffffffffffffffffffffff1690602001909291905050506111c0565b604051808215151515815260200191505060405180910390f35b34801561023c57600080fd5b5061027f6004803603810190808035600019169060200190929190803573ffffffffffffffffffffffffffffffffffffffff169060200190929190505050611281565b005b34801561028d57600080fd5b506102b060048036038101908080356000191690602001909291905050506117a0565b6040518086600019166000191681526020018581526020018481526020018373ffffffffffffffffffffffffffffffffffffffff1673ffffffffffffffffffffffffffffffffffffffff168152602001827bffffffffffffffffffffffffffffffffffffffffffffffffffffffff19167bffffffffffffffffffffffffffffffffffffffffffffffffffffffff191681526020019550505050505060405180910390f35b34801561036057600080fd5b5061038360048036038101908080356000191690602001909291905050506118f4565b6040518082815260200191505060405180910390f35b6000809054906101000a900473ffffffffffffffffffffffffffffffffffffffff1673ffffffffffffffffffffffffffffffffffffffff163373ffffffffffffffffffffffffffffffffffffffff161415156103f457600080fd5b8073ffffffffffffffffffffffffffffffffffffffff166000809054906101000a900473ffffffffffffffffffffffffffffffffffffffff1673ffffffffffffffffffffffffffffffffffffffff167fb532073b38c83145e3e5135377a08bf9aab55bc0fd7c1179cd4fb995d2a5159c60405160405180910390a3806000806101000a81548173ffffffffffffffffffffffffffffffffffffffff021916908373ffffffffffffffffffffffffffffffffffffffff16021790555050565b6000806000806000803391503273ffffffffffffffffffffffffffffffffffffffff168273ffffffffffffffffffffffffffffffffffffffff161415156104f857600080fd5b813b905060008114151561059a576040517f08c379a000000000000000000000000000000000000000000000000000000000815260040180806020018281038252602a8152602001807f416464726573736573206e6f74206f776e65642062792068756d616e2061726581526020017f20666f7262696464656e0000000000000000000000000000000000000000000081525060400191505060405180910390fd5b600360008b6000191660001916815260200190815260200160002060009054906101000a900473ffffffffffffffffffffffffffffffffffffffff16955060008673ffffffffffffffffffffffffffffffffffffffff1614151515610667576040517f08c379a00000000000000000000000000000000000000000000000000000000081526004018080602001828103825260128152602001807f496e76616c696420546f6b656e204e616d65000000000000000000000000000081525060200191505060405180910390fd5b429450339350859250888373ffffffffffffffffffffffffffffffffffffffff1663dd62ed3e86306040518363ffffffff167c0100000000000000000000000000000000000000000000000000000000028152600401808373ffffffffffffffffffffffffffffffffffffffff1673ffffffffffffffffffffffffffffffffffffffff1681526020018273ffffffffffffffffffffffffffffffffffffffff1673ffffffffffffffffffffffffffffffffffffffff16815260200192505050602060405180830381600087803b15801561074057600080fd5b505af1158015610754573d6000803e3d6000fd5b505050506040513d602081101561076a57600080fd5b8101908080519060200190929190505050101515156107f1576040517f08c379a00000000000000000000000000000000000000000000000000000000081526004018080602001828103825260148152602001807f53756666696369656e7420416c6c6f77616e636500000000000000000000000081525060200191505060405180910390fd5b8273ffffffffffffffffffffffffffffffffffffffff166323b872dd85308c6040518463ffffffff167c0100000000000000000000000000000000000000000000000000000000028152600401808473ffffffffffffffffffffffffffffffffffffffff1673ffffffffffffffffffffffffffffffffffffffff1681526020018373ffffffffffffffffffffffffffffffffffffffff1673ffffffffffffffffffffffffffffffffffffffff1681526020018281526020019350505050602060405180830381600087803b1580156108c857600080fd5b505af11580156108dc573d6000803e3d6000fd5b505050506040513d60208110156108f257600080fd5b81019080805190602001909291905050505088600460008873ffffffffffffffffffffffffffffffffffffffff1673ffffffffffffffffffffffffffffffffffffffff1681526020019081526020016000206000828254019250508190555060e0604051908101604052808b6000191681526020018773ffffffffffffffffffffffffffffffffffffffff1681526020018a8152602001868152602001611c20870181526020018873ffffffffffffffffffffffffffffffffffffffff1681526020017f30000000000000000000000000000000000000000000000000000000000000007bffffffffffffffffffffffffffffffffffffffffffffffffffffffff1916815250600160008673ffffffffffffffffffffffffffffffffffffffff1673ffffffffffffffffffffffffffffffffffffffff16815260200190815260200160002060008a600019166000191681526020019081526020016000206000820151816000019060001916905560208201518160010160006101000a81548173ffffffffffffffffffffffffffffffffffffffff021916908373ffffffffffffffffffffffffffffffffffffffff16021790555060408201518160020155606082015181600301556080820151816004015560a08201518160050160006101000a81548173ffffffffffffffffffffffffffffffffffffffff021916908373ffffffffffffffffffffffffffffffffffffffff16021790555060c08201518160050160146101000a81548163ffffffff02191690837c01000000000000000000000000000000000000000000000000000000009004021790555090505083600260008a6000191660001916815260200190815260200160002060006101000a81548173ffffffffffffffffffffffffffffffffffffffff021916908373ffffffffffffffffffffffffffffffffffffffff1602179055507f11f0d93bcb907922af0eb6e60d878b4922493550cfeea291212eaabe5392af428489888d8d8c8b604051808873ffffffffffffffffffffffffffffffffffffffff1673ffffffffffffffffffffffffffffffffffffffff16815260200187600019166000191681526020018673ffffffffffffffffffffffffffffffffffffffff1673ffffffffffffffffffffffffffffffffffffffff16815260200185600019166000191681526020018481526020018373ffffffffffffffffffffffffffffffffffffffff1673ffffffffffffffffffffffffffffffffffffffff16815260200182815260200197505050505050505060405180910390a150505050505050505050565b60008060008060008060008060003391503273ffffffffffffffffffffffffffffffffffffffff168273ffffffffffffffffffffffffffffffffffffffff16141515610cfc57600080fd5b813b9050600081141515610d9e576040517f08c379a000000000000000000000000000000000000000000000000000000000815260040180806020018281038252602a8152602001807f416464726573736573206e6f74206f776e65642062792068756d616e2061726581526020017f20666f7262696464656e0000000000000000000000000000000000000000000081525060400191505060405180910390fd5b3398508873ffffffffffffffffffffffffffffffffffffffff16600260008c6000191660001916815260200190815260200160002060009054906101000a900473ffffffffffffffffffffffffffffffffffffffff1673ffffffffffffffffffffffffffffffffffffffff16141515610e1657600080fd5b600160008a73ffffffffffffffffffffffffffffffffffffffff1673ffffffffffffffffffffffffffffffffffffffff16815260200190815260200160002060008b600019166000191681526020019081526020016000209750876000015496508760010160009054906101000a900473ffffffffffffffffffffffffffffffffffffffff1695507f30000000000000000000000000000000000000000000000000000000000000008860050160149054906101000a90047c0100000000000000000000000000000000000000000000000000000000027bffffffffffffffffffffffffffffffffffffffffffffffffffffffff1916148015610f6b5750600060036000896000191660001916815260200190815260200160002060009054906101000a900473ffffffffffffffffffffffffffffffffffffffff1673ffffffffffffffffffffffffffffffffffffffff1614155b1515610f7657600080fd5b8760020154945042935084600460008873ffffffffffffffffffffffffffffffffffffffff1673ffffffffffffffffffffffffffffffffffffffff168152602001908152602001600020600082825403925050819055508592508273ffffffffffffffffffffffffffffffffffffffff1663a9059cbb8a876040518363ffffffff167c0100000000000000000000000000000000000000000000000000000000028152600401808373ffffffffffffffffffffffffffffffffffffffff1673ffffffffffffffffffffffffffffffffffffffff16815260200182815260200192505050602060405180830381600087803b15801561107357600080fd5b505af1158015611087573d6000803e3d6000fd5b505050506040513d602081101561109d57600080fd5b8101908080519060200190929190505050507f32000000000000000000000000000000000000000000000000000000000000008860050160146101000a81548163ffffffff02191690837c0100000000000000000000000000000000000000000000000000000000900402179055507f46101b928c0ffd541df3e977f5b9fe363e15d2779977aad3698a1ab6f442b085898b8787604051808573ffffffffffffffffffffffffffffffffffffffff1673ffffffffffffffffffffffffffffffffffffffff168152602001846000191660001916815260200183815260200182815260200194505050505060405180910390a150505050505050505050565b6000809054906101000a900473ffffffffffffffffffffffffffffffffffffffff1681565b60008060009054906101000a900473ffffffffffffffffffffffffffffffffffffffff1673ffffffffffffffffffffffffffffffffffffffff163373ffffffffffffffffffffffffffffffffffffffff1614151561121d57600080fd5b8160036000856000191660001916815260200190815260200160002060006101000a81548173ffffffffffffffffffffffffffffffffffffffff021916908373ffffffffffffffffffffffffffffffffffffffff1602179055506001905092915050565b60008060008060008060008060003391503273ffffffffffffffffffffffffffffffffffffffff168273ffffffffffffffffffffffffffffffffffffffff161415156112cc57600080fd5b813b905060008114151561136e576040517f08c379a000000000000000000000000000000000000000000000000000000000815260040180806020018281038252602a8152602001807f416464726573736573206e6f74206f776e65642062792068756d616e2061726581526020017f20666f7262696464656e0000000000000000000000000000000000000000000081525060400191505060405180910390fd5b3398508873ffffffffffffffffffffffffffffffffffffffff16600260008d6000191660001916815260200190815260200160002060009054906101000a900473ffffffffffffffffffffffffffffffffffffffff1673ffffffffffffffffffffffffffffffffffffffff161415156113e657600080fd5b600160008a73ffffffffffffffffffffffffffffffffffffffff1673ffffffffffffffffffffffffffffffffffffffff16815260200190815260200160002060008c600019166000191681526020019081526020016000209750876000015496508760010160009054906101000a900473ffffffffffffffffffffffffffffffffffffffff1695507f30000000000000000000000000000000000000000000000000000000000000008860050160149054906101000a90047c0100000000000000000000000000000000000000000000000000000000027bffffffffffffffffffffffffffffffffffffffffffffffffffffffff191614801561153b5750600060036000896000191660001916815260200190815260200160002060009054906101000a900473ffffffffffffffffffffffffffffffffffffffff1673ffffffffffffffffffffffffffffffffffffffff1614155b151561154657600080fd5b8760020154945042935084600460008873ffffffffffffffffffffffffffffffffffffffff1673ffffffffffffffffffffffffffffffffffffffff168152602001908152602001600020600082825403925050819055508592508273ffffffffffffffffffffffffffffffffffffffff1663a9059cbb8b876040518363ffffffff167c0100000000000000000000000000000000000000000000000000000000028152600401808373ffffffffffffffffffffffffffffffffffffffff1673ffffffffffffffffffffffffffffffffffffffff16815260200182815260200192505050602060405180830381600087803b15801561164357600080fd5b505af1158015611657573d6000803e3d6000fd5b505050506040513d602081101561166d57600080fd5b8101908080519060200190929190505050507f31000000000000000000000000000000000000000000000000000000000000008860050160146101000a81548163ffffffff02191690837c0100000000000000000000000000000000000000000000000000000000900402179055507ff09e2b1083708c013cf6038617e27bcc75f6ef8de09f291159049f9a88748675898b8d8888604051808673ffffffffffffffffffffffffffffffffffffffff1673ffffffffffffffffffffffffffffffffffffffff1681526020018573ffffffffffffffffffffffffffffffffffffffff1673ffffffffffffffffffffffffffffffffffffffff16815260200184600019166000191681526020018381526020018281526020019550505050505060405180910390a15050505050505050505050565b60008060008060008060003391508173ffffffffffffffffffffffffffffffffffffffff16600260008a6000191660001916815260200190815260200160002060009054906101000a900473ffffffffffffffffffffffffffffffffffffffff1673ffffffffffffffffffffffffffffffffffffffff1614151561182357600080fd5b600160008373ffffffffffffffffffffffffffffffffffffffff1673ffffffffffffffffffffffffffffffffffffffff1681526020019081526020016000206000896000191660001916815260200190815260200160002090508060000154816002015482600301548360050160009054906101000a900473ffffffffffffffffffffffffffffffffffffffff168460050160149054906101000a90047c01000000000000000000000000000000000000000000000000000000000296509650965096509650505091939590929450565b60008060003391508173ffffffffffffffffffffffffffffffffffffffff1660026000866000191660001916815260200190815260200160002060009054906101000a900473ffffffffffffffffffffffffffffffffffffffff1673ffffffffffffffffffffffffffffffffffffffff1614151561197157600080fd5b42905080600160008473ffffffffffffffffffffffffffffffffffffffff1673ffffffffffffffffffffffffffffffffffffffff168152602001908152602001600020600086600019166000191681526020019081526020016000206004015403925050509190505600a165627a7a72305820651ef90659ba3c777e7297f3a027d8f630b26cadc248bef3f7529f6fad6787b20029",
  "source": "pragma solidity ^0.4.24;\r\n\r\n\r\n// import \"openzeppelin-solidity/contracts/token/ERC20/ERC20.sol\";  \r\n// import \"openzeppelin-solidity/contracts/lifecycle/Pausable.sol\";  \r\n// import 'zeppelin-solidity/contracts/token/ERC20/MintableToken.sol';\r\nimport \"zeppelin-solidity/contracts/lifecycle/Pausable.sol\";\r\nimport \"zeppelin-solidity/contracts/token/ERC20/ERC20.sol\";\r\n\r\n/* Owned Contract */\r\ncontract Owned {\r\n\taddress public owner = msg.sender;\r\n\tevent OwnerChanged(address indexed old, address indexed current);\r\n\tmodifier onlyOwner { require(msg.sender == owner); _; }\r\n\tfunction setOwner(address _newOwner) onlyOwner public { emit OwnerChanged(owner, _newOwner); owner = _newOwner; }\r\n}\r\n\r\n\r\n/* ERC20 contract interface */\r\n// contract ERC20 {\r\n//     function totalSupply() public constant returns (uint);\r\n//     function balanceOf(address tokenOwner) public constant returns (uint balance);\r\n//     function allowance(address tokenOwner, address spender) public constant returns (uint remaining);\r\n//     function transfer(address to, uint tokens) public returns (bool success);\r\n//     function approve(address spender, uint tokens) public returns (bool success);\r\n//     function transferFrom(address from, address to, uint tokens) public returns (bool success);\r\n//     event Transfer(address indexed from, address indexed to, uint tokens);\r\n//     event Approval(address indexed tokenOwner, address indexed spender, uint tokens);\r\n// }\r\n\r\n\r\n\r\ncontract OrderEscrow is Owned {\r\n\r\n\t/* order structure */\r\n\tstruct Order {\r\n\t\tbytes32 tokenName;\r\n\t\taddress tokenAddr;\r\n\t\tuint lockedAmount;\r\n\t\tuint lockedTime;\r\n\t\tuint sessionTime;\r\n\t\taddress buyer;\r\n\t\tbytes4 txStatus;\r\n\t}\r\n\t\r\n\t/* User Order Data */\r\n\t/* user address => ( order id => Order structure ) */\r\n\tmapping (address => mapping (bytes32 => Order)) userOrders;\r\n\r\n\tmapping (bytes32 => address) orderOwner;\r\n\t\r\n\t/* token records, for registrations of ERC tokens */\r\n\t/* token name => token address */\r\n\tmapping (bytes32 => address) tokens;\r\n\r\n\t/* contract Balance Data */\r\n\t/* token address => amount */\r\n\tmapping (address => uint) contractERCBalance;\r\n\r\n\r\n\t/* events */\r\n\tevent TokenRegister(address owner, address _tokenAddr, bytes32 _tokenName, uint timestamp);\r\n\tevent MakeOrder(address sender, bytes32 orderID, address _tokenAddr, bytes32 _tokenName, uint _lockedAmount, address _buyer, uint timestamp);\r\n\tevent CancelOrder(address sender, bytes32 orderID, uint lockedAmount, uint timestamp);\r\n\tevent ConfirmOrder(address sender, address buyer, bytes32 orderID, uint lockedAmount, uint timestamp);\r\n\r\n\r\n\tconstructor() public {\r\n\t}\r\n\r\n\r\n\t/* Is Human: Check if the transactions are executed by humen, which is user address */ \r\n\tmodifier isHuman() {\r\n        address _addr = msg.sender;\r\n        require (_addr == tx.origin);\r\n        \r\n        uint256 _codeLength;\r\n        \r\n        assembly {_codeLength := extcodesize(_addr)}\r\n        require(_codeLength == 0, \"Addresses not owned by human are forbidden\");\r\n        _;\r\n    }\r\n\r\n\r\n\t/* Register token to the contract, which makes it valid. Only owner can edit */\r\n\tfunction tokenRegister( address _tokenAddr, bytes32 _tokenName ) onlyOwner private {\r\n\r\n\t\t/* Check if the token is registered */\r\n\t\trequire (tokens[_tokenName] == 0x0, \"The Token Has Registered\");\r\n\t\t\r\n\t\t/* registration */\r\n\t\ttokens[_tokenName] = _tokenAddr;\r\n\r\n\t\temit TokenRegister( msg.sender, _tokenAddr, _tokenName, now );\t\t\r\n\t}\r\n\r\n\r\n\t/* Make order */\r\n\tfunction makeOrder( bytes32 _tokenName, uint _amount, bytes32 orderID, address _buyer ) isHuman public {\r\n\t\t\r\n\t\t/* Check if the token is valid */\r\n\t\taddress _tokenAddr = tokens[_tokenName];\r\n\t\trequire ( _tokenAddr != 0x0, \"Invalid Token Name\");\r\n\r\n\t\tuint _now = now;\r\n\t\taddress sender = msg.sender;\r\n\r\n\t\t/* Initialization of ERC20 token object */ \r\n\t\tERC20 erc20 = ERC20(_tokenAddr);\r\n\r\n\t\t/* Check if the passing amount is allowed by user */\r\n\t\t/* As it can be transfer from user to contract to be locked */ \r\n\t\trequire ( erc20.allowance( sender, address(this) ) >= _amount, \"Sufficient Allowance\" );\r\n\t\terc20.transferFrom( sender, address(this), _amount);\r\n\r\n\t\t/* Take records of token amount in contract */\r\n\t\tcontractERCBalance[_tokenAddr] += _amount;\r\n\r\n\t\t/* Set order data */\r\n\t\tuserOrders[sender][orderID] = Order({\r\n\t\t\ttokenName: _tokenName, \r\n\t\t\ttokenAddr: _tokenAddr,\r\n\t\t\tlockedAmount: _amount,\r\n\t\t\tlockedTime: _now,\r\n\t\t\tsessionTime: _now + 7200,\r\n\t\t\tbuyer: _buyer,\r\n\t\t\ttxStatus: \"0\"\r\n\t\t});\r\n\r\n\t\t/* Set the owner of the order by UUID */\r\n\t\torderOwner[orderID] = sender;\r\n\r\n\t\temit MakeOrder( sender, orderID, _tokenAddr, _tokenName, _amount, _buyer, _now );\r\n\t}\r\n\r\n\r\n\t/* Cancel order */\r\n\tfunction cancelOrder ( bytes32 orderID ) isHuman public {\r\n\r\n\t\t/* Check if the order ID is correctly owned */\r\n\t\taddress sender = msg.sender;\r\n\t\trequire (orderOwner[orderID] == sender);\r\n\r\n\t\t/* Get the user(sender)'s order data */ \r\n\t\tOrder storage _order = userOrders[sender][orderID];\r\n\t\tbytes32 _tokenName = _order.tokenName;\r\n\t\taddress _tokenAddr = _order.tokenAddr;\r\n\r\n\t\t/** Check status of the order and token validity.  \r\n\t\t  * The former should be on pending, and the other should be registered \r\n\t\t**/\r\n\t\trequire (_order.txStatus == \"0\" && tokens[_tokenName] != 0x0);\r\n\r\n\t\tuint _lockedAmount = _order.lockedAmount;\r\n\t\tuint _now = now;\r\n\r\n\t\t/* Update balance in the contract */\r\n\t\tcontractERCBalance[_tokenAddr] -= _lockedAmount;\r\n\r\n\t\t/* Initialize ERC20 object */\r\n\t\tERC20 erc20 = ERC20(_tokenAddr);\r\n\r\n\t\t/* Send back to the order maker */\r\n\t\terc20.transfer( sender, _lockedAmount );\r\n\t\t\r\n\t\t/* Set order status to \"canceled\" */\r\n\t\t_order.txStatus = \"2\";\r\n\t\t// delete orderOwner[orderOwner];\r\n\r\n\t\temit CancelOrder( sender, orderID, _lockedAmount, _now );\r\n\t}\r\n\r\n\r\n\tfunction confirmOrder ( bytes32 orderID, address _buyer ) isHuman public {\r\n\r\n\t\t/* Check if the order ID is correctly owned */\r\n\t\taddress sender = msg.sender;\r\n\t\trequire (orderOwner[orderID] == sender);\r\n\r\n\t\t/* Get the user(sender)'s order data */ \r\n\t\tOrder storage _order = userOrders[sender][orderID];\r\n\t\tbytes32 _tokenName = _order.tokenName;\r\n\t\taddress _tokenAddr = _order.tokenAddr;\r\n\r\n\t\t/** Check status of the order and token validity.  \r\n\t\t  * The former should be on pending, and the other should be registered \r\n\t\t**/\r\n\t\trequire (_order.txStatus == \"0\" && tokens[_tokenName] != 0x0);\r\n\t\t\r\n\t\tuint _lockedAmount = _order.lockedAmount;\r\n\t\tuint _now = now;\r\n\r\n\t\t/* Update balance in the contract */\r\n\t\tcontractERCBalance[_tokenAddr] -= _lockedAmount;\r\n\r\n\t\t/* Initialize ERC20 object */\r\n\t\tERC20 erc20 = ERC20(_tokenAddr);\r\n\r\n\t\t/* Send to the order taker(buyer) */\r\n\t\terc20.transfer( _buyer, _lockedAmount );\r\n\t\t\r\n\t\t/* Set order status to \"Success\" */\r\n\t\t_order.txStatus = \"1\";\r\n\t\t// delete orderOwner[orderOwner];\r\n\r\n\t\temit ConfirmOrder( sender, _buyer, orderID, _lockedAmount, _now );\r\n\t}\r\n\r\n\r\n\t/* Get user order data */\r\n\tfunction getOrderData( bytes32 orderID ) public view returns (bytes32, uint, uint, address, bytes4) {\r\n\t\t\r\n\t\t/* Check if the order ID is correctly owned */\r\n\t\taddress sender = msg.sender;\r\n\t\trequire (orderOwner[orderID] == sender);\r\n\t\t\r\n\t\tOrder storage _order = userOrders[sender][orderID]; \r\n\t\treturn (\r\n\t\t\t_order.tokenName,\r\n\t\t\t_order.lockedAmount,\r\n\t\t\t_order.lockedTime,\r\n\t\t\t_order.buyer,\r\n\t\t\t_order.txStatus\r\n\t\t);\r\n\t}\r\n\r\n\r\n\t/* Get the order validity time left */\r\n\tfunction getOrderLeftTime( bytes32 orderID ) public view returns( uint ) {\r\n\t\t\r\n\t\t/* Check if the order ID is correctly owned */\r\n\t\taddress sender = msg.sender;\r\n\t\trequire (orderOwner[orderID] == sender);\r\n\r\n\t\tuint _now = now;\r\n\t\treturn ( userOrders[sender][orderID].sessionTime - _now );\r\n\t}\r\n\t\r\n////////////////////////////////////////////\r\n\tfunction addNewToken(bytes32 symbol_, address address_) public onlyOwner returns(bool) {\r\n        tokens[symbol_] = address_;\r\n\r\n        return true;\r\n    }\r\n\r\n\r\n    //     function transferTokens(bytes32 symbol_, address to_, uint256 amount_) public whenNotPaused{\r\n    //     require(tokens[symbol_] != 0x0);\r\n    //     require(amount_ > 0);\r\n\r\n    //     address contract_ = tokens[symbol_];\r\n    //     address from_ = msg.sender;\r\n\r\n    //     ERC20Interface = ERC20(contract_);\r\n\r\n    //     uint256 transactionId = transactions.push(\r\n    //         Transfer({\r\n    //             contract_: contract_,\r\n    //             to_: to_,\r\n    //             amount_: amount_,\r\n    //             failed_: true\r\n    //         })\r\n    //     );\r\n    //     transactionIndexesToSender[from_].push(transactionId - 1);\r\n\r\n    //     if (amount_ > ERC20Interface.allowance(from_, address(this))) {\r\n    //         emit TransferFailed(from_, to_, amount_);\r\n    //         revert();\r\n    //     }\r\n    //     ERC20Interface.transferFrom(from_, to_, amount_);\r\n\r\n    //     transactions[transactionId - 1].failed_ = false;\r\n\r\n    //     emit TransferSuccessful(from_, to_, amount_);\r\n    // }\r\n\r\n}",
  "sourcePath": "D:\\erc_SmartContract_practice\\ethFCoin\\contracts\\OrderEscrow.sol",
  "compiler": {
    "name": "solc",
    "version": "0.4.24+commit.e67f0147.Emscripten.clang"
  },
  "schemaVersion": "2.0.1",
  "updatedAt": "2018-11-04T18:21:52.779Z"
}