{
  "contractName": "Owned",
  "abi": [
    {
      "constant": true,
      "inputs": [],
      "name": "owner",
      "outputs": [
        {
          "name": "",
          "type": "address"
        }
      ],
      "payable": false,
      "stateMutability": "view",
      "type": "function"
    },
    {
      "anonymous": false,
      "inputs": [
        {
          "indexed": true,
          "name": "old",
          "type": "address"
        },
        {
          "indexed": true,
          "name": "current",
          "type": "address"
        }
      ],
      "name": "OwnerChanged",
      "type": "event"
    },
    {
      "constant": false,
      "inputs": [
        {
          "name": "_newOwner",
          "type": "address"
        }
      ],
      "name": "setOwner",
      "outputs": [],
      "payable": false,
      "stateMutability": "nonpayable",
      "type": "function"
    }
  ],
  "bytecode": "0x6080604052336000806101000a81548173ffffffffffffffffffffffffffffffffffffffff021916908373ffffffffffffffffffffffffffffffffffffffff16021790555034801561005057600080fd5b50610255806100606000396000f30060806040526004361061004c576000357c0100000000000000000000000000000000000000000000000000000000900463ffffffff16806313af4035146100515780638da5cb5b14610094575b600080fd5b34801561005d57600080fd5b50610092600480360381019080803573ffffffffffffffffffffffffffffffffffffffff1690602001909291905050506100eb565b005b3480156100a057600080fd5b506100a9610204565b604051808273ffffffffffffffffffffffffffffffffffffffff1673ffffffffffffffffffffffffffffffffffffffff16815260200191505060405180910390f35b6000809054906101000a900473ffffffffffffffffffffffffffffffffffffffff1673ffffffffffffffffffffffffffffffffffffffff163373ffffffffffffffffffffffffffffffffffffffff1614151561014657600080fd5b8073ffffffffffffffffffffffffffffffffffffffff166000809054906101000a900473ffffffffffffffffffffffffffffffffffffffff1673ffffffffffffffffffffffffffffffffffffffff167fb532073b38c83145e3e5135377a08bf9aab55bc0fd7c1179cd4fb995d2a5159c60405160405180910390a3806000806101000a81548173ffffffffffffffffffffffffffffffffffffffff021916908373ffffffffffffffffffffffffffffffffffffffff16021790555050565b6000809054906101000a900473ffffffffffffffffffffffffffffffffffffffff16815600a165627a7a723058203c00f75e42e622a1477a68bf851c0263531e4f3f84f236702599616027ff4fb70029",
  "source": "pragma solidity ^0.4.24;\r\n\r\n\r\n// import \"openzeppelin-solidity/contracts/token/ERC20/ERC20.sol\";  \r\n// import \"openzeppelin-solidity/contracts/lifecycle/Pausable.sol\";  \r\n// import 'zeppelin-solidity/contracts/token/ERC20/MintableToken.sol';\r\nimport \"zeppelin-solidity/contracts/lifecycle/Pausable.sol\";\r\n// import \"zeppelin-solidity/contracts/token/ERC20/ERC20.sol\";\r\n\r\n/* Owned Contract */\r\ncontract Owned {\r\n\taddress public owner = msg.sender;\r\n\tevent OwnerChanged(address indexed old, address indexed current);\r\n\tmodifier onlyOwner { require(msg.sender == owner); _; }\r\n\tfunction setOwner(address _newOwner) onlyOwner public { emit OwnerChanged(owner, _newOwner); owner = _newOwner; }\r\n}\r\n\r\n\r\n/* ERC20 contract interface */\r\ncontract ERC20 {\r\n    function totalSupply() public constant returns (uint);\r\n    function balanceOf(address tokenOwner) public constant returns (uint balance);\r\n    function allowance(address tokenOwner, address spender) public constant returns (uint remaining);\r\n    function transfer(address to, uint tokens) public returns (bool success);\r\n    function approve(address spender, uint tokens) public returns (bool success);\r\n    function transferFrom(address from, address to, uint tokens) public returns (bool success);\r\n    event Transfer(address indexed from, address indexed to, uint tokens);\r\n    event Approval(address indexed tokenOwner, address indexed spender, uint tokens);\r\n}\r\n\r\n\r\n\r\ncontract OrderEscrow is Owned {\r\n\r\n\t/* order structure */\r\n\tstruct Order {\r\n\t\tbytes32 tokenName;\r\n\t\taddress tokenAddr;\r\n\t\tuint lockedAmount;\r\n\t\tuint lockedTime;\r\n\t\tuint sessionTime;\r\n\t\taddress buyer;\r\n\t\tbytes4 txStatus;\r\n\t}\r\n\t\r\n\t/* User Order Data */\r\n\t/* user address => ( order id => Order structure ) */\r\n\tmapping (address => mapping (bytes32 => Order)) userOrders;\r\n\r\n\tmapping (bytes32 => address) orderOwner;\r\n\t\r\n\t/* token records, for registrations of ERC tokens */\r\n\t/* token name => token address */\r\n\tmapping (bytes32 => address) tokens;\r\n\r\n\t/* contract Balance Data */\r\n\t/* token address => amount */\r\n\tmapping (address => uint) contractERCBalance;\r\n\r\n\r\n\t/* events */\r\n\tevent TokenRegister(address owner, address _tokenAddr, bytes32 _tokenName, uint timestamp);\r\n\tevent MakeOrder(address sender, bytes32 orderID, address _tokenAddr, bytes32 _tokenName, uint _lockedAmount, address _buyer, uint timestamp);\r\n\tevent CancelOrder(address sender, bytes32 orderID, uint lockedAmount, uint timestamp);\r\n\tevent ConfirmOrder(address sender, address buyer, bytes32 orderID, uint lockedAmount, uint timestamp);\r\n\r\n\r\n\tconstructor() public {\r\n\t}\r\n\r\n\r\n\t/* Is Human: Check if the transactions are executed by humen, which is user address */ \r\n\tmodifier isHuman() {\r\n        address _addr = msg.sender;\r\n        require (_addr == tx.origin);\r\n        \r\n        uint256 _codeLength;\r\n        \r\n        assembly {_codeLength := extcodesize(_addr)}\r\n        require(_codeLength == 0, \"Addresses not owned by human are forbidden\");\r\n        _;\r\n    }\r\n\r\n\r\n\t/* Register token to the contract, which makes it valid. Only owner can edit */\r\n\tfunction tokenRegister( address _tokenAddr, bytes32 _tokenName ) onlyOwner private {\r\n\r\n\t\t/* Check if the token is registered */\r\n\t\trequire (tokens[_tokenName] == 0x0, \"The Token Has Registered\");\r\n\t\t\r\n\t\t/* registration */\r\n\t\ttokens[_tokenName] = _tokenAddr;\r\n\r\n\t\temit TokenRegister( msg.sender, _tokenAddr, _tokenName, now );\t\t\r\n\t}\r\n\r\n\r\n\t/* Make order */\r\n\tfunction makeOrder( bytes32 _tokenName, uint _amount, bytes32 orderID, address _buyer ) isHuman public {\r\n\t\t\r\n\t\t/* Check if the token is valid */\r\n\t\taddress _tokenAddr = tokens[_tokenName];\r\n\t\trequire ( _tokenAddr != 0x0, \"Invalid Token Name\");\r\n\r\n\t\tuint _now = now;\r\n\t\taddress sender = msg.sender;\r\n\r\n\t\t/* Initialization of ERC20 token object */ \r\n\t\tERC20 erc20 = ERC20(_tokenAddr);\r\n\r\n\t\t/* Check if the passing amount is allowed by user */\r\n\t\t/* As it can be transfer from user to contract to be locked */ \r\n\t\trequire ( erc20.allowance( sender, address(this) ) >= _amount, \"Sufficient Allowance\" );\r\n\t\terc20.transferFrom( sender, address(this), _amount);\r\n\r\n\t\t/* Take records of token amount in contract */\r\n\t\tcontractERCBalance[_tokenAddr] += _amount;\r\n\r\n\t\t/* Set order data */\r\n\t\tuserOrders[sender][orderID] = Order({\r\n\t\t\ttokenName: _tokenName, \r\n\t\t\ttokenAddr: _tokenAddr,\r\n\t\t\tlockedAmount: _amount,\r\n\t\t\tlockedTime: _now,\r\n\t\t\tsessionTime: _now + 7200,\r\n\t\t\tbuyer: _buyer,\r\n\t\t\ttxStatus: \"0\"\r\n\t\t});\r\n\r\n\t\t/* Set the owner of the order by UUID */\r\n\t\torderOwner[orderID] = sender;\r\n\r\n\t\temit MakeOrder( sender, orderID, _tokenAddr, _tokenName, _amount, _buyer, _now );\r\n\t}\r\n\r\n\r\n\t/* Cancel order */\r\n\tfunction cancelOrder ( bytes32 orderID ) isHuman public {\r\n\r\n\t\t/* Check if the order ID is correctly owned */\r\n\t\taddress sender = msg.sender;\r\n\t\trequire (orderOwner[orderID] == sender);\r\n\r\n\t\t/* Get the user(sender)'s order data */ \r\n\t\tOrder storage _order = userOrders[sender][orderID];\r\n\t\tbytes32 _tokenName = _order.tokenName;\r\n\t\taddress _tokenAddr = _order.tokenAddr;\r\n\r\n\t\t/** Check status of the order and token validity.  \r\n\t\t  * The former should be on pending, and the other should be registered \r\n\t\t**/\r\n\t\trequire (_order.txStatus == \"0\" && tokens[_tokenName] != 0x0);\r\n\r\n\t\tuint _lockedAmount = _order.lockedAmount;\r\n\t\tuint _now = now;\r\n\r\n\t\t/* Update balance in the contract */\r\n\t\tcontractERCBalance[_tokenAddr] -= _lockedAmount;\r\n\r\n\t\t/* Initialize ERC20 object */\r\n\t\tERC20 erc20 = ERC20(_tokenAddr);\r\n\r\n\t\t/* Send back to the order maker */\r\n\t\terc20.transfer( sender, _lockedAmount );\r\n\t\t\r\n\t\t/* Set order status to \"canceled\" */\r\n\t\t_order.txStatus = \"2\";\r\n\t\t// delete orderOwner[orderOwner];\r\n\r\n\t\temit CancelOrder( sender, orderID, _lockedAmount, _now );\r\n\t}\r\n\r\n\r\n\tfunction confirmOrder ( bytes32 orderID, address _buyer ) isHuman public {\r\n\r\n\t\t/* Check if the order ID is correctly owned */\r\n\t\taddress sender = msg.sender;\r\n\t\trequire (orderOwner[orderID] == sender);\r\n\r\n\t\t/* Get the user(sender)'s order data */ \r\n\t\tOrder storage _order = userOrders[sender][orderID];\r\n\t\tbytes32 _tokenName = _order.tokenName;\r\n\t\taddress _tokenAddr = _order.tokenAddr;\r\n\r\n\t\t/** Check status of the order and token validity.  \r\n\t\t  * The former should be on pending, and the other should be registered \r\n\t\t**/\r\n\t\trequire (_order.txStatus == \"0\" && tokens[_tokenName] != 0x0);\r\n\t\t\r\n\t\tuint _lockedAmount = _order.lockedAmount;\r\n\t\tuint _now = now;\r\n\r\n\t\t/* Update balance in the contract */\r\n\t\tcontractERCBalance[_tokenAddr] -= _lockedAmount;\r\n\r\n\t\t/* Initialize ERC20 object */\r\n\t\tERC20 erc20 = ERC20(_tokenAddr);\r\n\r\n\t\t/* Send to the order taker(buyer) */\r\n\t\terc20.transfer( _buyer, _lockedAmount );\r\n\t\t\r\n\t\t/* Set order status to \"Success\" */\r\n\t\t_order.txStatus = \"1\";\r\n\t\t// delete orderOwner[orderOwner];\r\n\r\n\t\temit ConfirmOrder( sender, _buyer, orderID, _lockedAmount, _now );\r\n\t}\r\n\r\n\r\n\t/* Get user order data */\r\n\tfunction getOrderData( bytes32 orderID ) public view returns (bytes32, uint, uint, address, bytes4) {\r\n\t\t\r\n\t\t/* Check if the order ID is correctly owned */\r\n\t\taddress sender = msg.sender;\r\n\t\trequire (orderOwner[orderID] == sender);\r\n\t\t\r\n\t\tOrder storage _order = userOrders[sender][orderID]; \r\n\t\treturn (\r\n\t\t\t_order.tokenName,\r\n\t\t\t_order.lockedAmount,\r\n\t\t\t_order.lockedTime,\r\n\t\t\t_order.buyer,\r\n\t\t\t_order.txStatus\r\n\t\t);\r\n\t}\r\n\r\n\r\n\t/* Get the order validity time left */\r\n\tfunction getOrderLeftTime( bytes32 orderID ) public view returns( uint ) {\r\n\t\t\r\n\t\t/* Check if the order ID is correctly owned */\r\n\t\taddress sender = msg.sender;\r\n\t\trequire (orderOwner[orderID] == sender);\r\n\r\n\t\tuint _now = now;\r\n\t\treturn ( userOrders[sender][orderID].sessionTime - _now );\r\n\t}\r\n\t\r\n////////////////////////////////////////////\r\n\tfunction addNewToken(bytes32 symbol_, address address_) public onlyOwner returns(bool) {\r\n        tokens[symbol_] = address_;\r\n\r\n        return true;\r\n    }\r\n\r\n\r\n    //     function transferTokens(bytes32 symbol_, address to_, uint256 amount_) public whenNotPaused{\r\n    //     require(tokens[symbol_] != 0x0);\r\n    //     require(amount_ > 0);\r\n\r\n    //     address contract_ = tokens[symbol_];\r\n    //     address from_ = msg.sender;\r\n\r\n    //     ERC20Interface = ERC20(contract_);\r\n\r\n    //     uint256 transactionId = transactions.push(\r\n    //         Transfer({\r\n    //             contract_: contract_,\r\n    //             to_: to_,\r\n    //             amount_: amount_,\r\n    //             failed_: true\r\n    //         })\r\n    //     );\r\n    //     transactionIndexesToSender[from_].push(transactionId - 1);\r\n\r\n    //     if (amount_ > ERC20Interface.allowance(from_, address(this))) {\r\n    //         emit TransferFailed(from_, to_, amount_);\r\n    //         revert();\r\n    //     }\r\n    //     ERC20Interface.transferFrom(from_, to_, amount_);\r\n\r\n    //     transactions[transactionId - 1].failed_ = false;\r\n\r\n    //     emit TransferSuccessful(from_, to_, amount_);\r\n    // }\r\n\r\n}",
  "sourcePath": "D:\\erc_SmartContract_practice\\ethFCoin\\contracts\\OrderEscrow.sol",
  "compiler": {
    "name": "solc",
    "version": "0.4.24+commit.e67f0147.Emscripten.clang"
  },
  "schemaVersion": "2.0.1",
  "updatedAt": "2018-11-03T17:15:51.243Z"
}