{
  "contractName": "TokenExchange",
  "abi": [
    {
      "constant": true,
      "inputs": [],
      "name": "ERC20Interface",
      "outputs": [
        {
          "name": "",
          "type": "address"
        }
      ],
      "payable": false,
      "stateMutability": "view",
      "type": "function"
    },
    {
      "constant": false,
      "inputs": [],
      "name": "unpause",
      "outputs": [],
      "payable": false,
      "stateMutability": "nonpayable",
      "type": "function"
    },
    {
      "constant": true,
      "inputs": [],
      "name": "paused",
      "outputs": [
        {
          "name": "",
          "type": "bool"
        }
      ],
      "payable": false,
      "stateMutability": "view",
      "type": "function"
    },
    {
      "constant": false,
      "inputs": [],
      "name": "renounceOwnership",
      "outputs": [],
      "payable": false,
      "stateMutability": "nonpayable",
      "type": "function"
    },
    {
      "constant": false,
      "inputs": [],
      "name": "pause",
      "outputs": [],
      "payable": false,
      "stateMutability": "nonpayable",
      "type": "function"
    },
    {
      "constant": true,
      "inputs": [],
      "name": "owner",
      "outputs": [
        {
          "name": "",
          "type": "address"
        }
      ],
      "payable": false,
      "stateMutability": "view",
      "type": "function"
    },
    {
      "constant": true,
      "inputs": [
        {
          "name": "",
          "type": "bytes32"
        }
      ],
      "name": "tokens",
      "outputs": [
        {
          "name": "",
          "type": "address"
        }
      ],
      "payable": false,
      "stateMutability": "view",
      "type": "function"
    },
    {
      "constant": true,
      "inputs": [
        {
          "name": "",
          "type": "uint256"
        }
      ],
      "name": "transactions",
      "outputs": [
        {
          "name": "contract_",
          "type": "address"
        },
        {
          "name": "to_",
          "type": "address"
        },
        {
          "name": "amount_",
          "type": "uint256"
        },
        {
          "name": "failed_",
          "type": "bool"
        }
      ],
      "payable": false,
      "stateMutability": "view",
      "type": "function"
    },
    {
      "constant": true,
      "inputs": [
        {
          "name": "",
          "type": "address"
        },
        {
          "name": "",
          "type": "uint256"
        }
      ],
      "name": "transactionIndexesToSender",
      "outputs": [
        {
          "name": "",
          "type": "uint256"
        }
      ],
      "payable": false,
      "stateMutability": "view",
      "type": "function"
    },
    {
      "constant": false,
      "inputs": [
        {
          "name": "_newOwner",
          "type": "address"
        }
      ],
      "name": "transferOwnership",
      "outputs": [],
      "payable": false,
      "stateMutability": "nonpayable",
      "type": "function"
    },
    {
      "inputs": [],
      "payable": false,
      "stateMutability": "nonpayable",
      "type": "constructor"
    },
    {
      "payable": true,
      "stateMutability": "payable",
      "type": "fallback"
    },
    {
      "anonymous": false,
      "inputs": [
        {
          "indexed": true,
          "name": "from_",
          "type": "address"
        },
        {
          "indexed": true,
          "name": "to_",
          "type": "address"
        },
        {
          "indexed": false,
          "name": "amount_",
          "type": "uint256"
        }
      ],
      "name": "TransferSuccessful",
      "type": "event"
    },
    {
      "anonymous": false,
      "inputs": [
        {
          "indexed": true,
          "name": "from_",
          "type": "address"
        },
        {
          "indexed": true,
          "name": "to_",
          "type": "address"
        },
        {
          "indexed": false,
          "name": "amount_",
          "type": "uint256"
        }
      ],
      "name": "TransferFailed",
      "type": "event"
    },
    {
      "anonymous": false,
      "inputs": [],
      "name": "Pause",
      "type": "event"
    },
    {
      "anonymous": false,
      "inputs": [],
      "name": "Unpause",
      "type": "event"
    },
    {
      "anonymous": false,
      "inputs": [
        {
          "indexed": true,
          "name": "previousOwner",
          "type": "address"
        }
      ],
      "name": "OwnershipRenounced",
      "type": "event"
    },
    {
      "anonymous": false,
      "inputs": [
        {
          "indexed": true,
          "name": "previousOwner",
          "type": "address"
        },
        {
          "indexed": true,
          "name": "newOwner",
          "type": "address"
        }
      ],
      "name": "OwnershipTransferred",
      "type": "event"
    },
    {
      "constant": false,
      "inputs": [
        {
          "name": "symbol_",
          "type": "bytes32"
        },
        {
          "name": "address_",
          "type": "address"
        }
      ],
      "name": "addNewToken",
      "outputs": [
        {
          "name": "",
          "type": "bool"
        }
      ],
      "payable": false,
      "stateMutability": "nonpayable",
      "type": "function"
    },
    {
      "constant": false,
      "inputs": [
        {
          "name": "symbol_",
          "type": "bytes32"
        }
      ],
      "name": "removeToken",
      "outputs": [
        {
          "name": "",
          "type": "bool"
        }
      ],
      "payable": false,
      "stateMutability": "nonpayable",
      "type": "function"
    },
    {
      "constant": false,
      "inputs": [
        {
          "name": "symbol_",
          "type": "bytes32"
        },
        {
          "name": "to_",
          "type": "address"
        },
        {
          "name": "amount_",
          "type": "uint256"
        }
      ],
      "name": "transferTokens",
      "outputs": [],
      "payable": false,
      "stateMutability": "nonpayable",
      "type": "function"
    },
    {
      "constant": false,
      "inputs": [
        {
          "name": "fromSymbol_",
          "type": "bytes32"
        },
        {
          "name": "toSymbol_",
          "type": "bytes32"
        },
        {
          "name": "toUser_",
          "type": "address"
        },
        {
          "name": "fromAmount_",
          "type": "uint256"
        },
        {
          "name": "toAmount_",
          "type": "uint256"
        }
      ],
      "name": "exchangeToken",
      "outputs": [],
      "payable": false,
      "stateMutability": "nonpayable",
      "type": "function"
    },
    {
      "constant": false,
      "inputs": [
        {
          "name": "beneficiary",
          "type": "address"
        }
      ],
      "name": "withdraw",
      "outputs": [],
      "payable": true,
      "stateMutability": "payable",
      "type": "function"
    }
  ],
  "bytecode": "0x608060405260008060146101000a81548160ff02191690831515021790555034801561002a57600080fd5b50336000806101000a81548173ffffffffffffffffffffffffffffffffffffffff021916908373ffffffffffffffffffffffffffffffffffffffff16021790555033600360006101000a81548173ffffffffffffffffffffffffffffffffffffffff021916908373ffffffffffffffffffffffffffffffffffffffff160217905550612117806100bb6000396000f3006080604052600436106100db576000357c0100000000000000000000000000000000000000000000000000000000900463ffffffff1680631bbc4b83146100dd5780631f9988c914610134578063224e74621461018f5780633f4ba83a146101d857806351cff8d9146101ef5780635c975abb14610225578063715018a6146102545780638456cb591461026b5780638da5cb5b14610282578063904194a3146102d95780639ace38c21461034a578063b082443b146103fc578063bf2cbb7514610465578063c4796437146104d8578063f2fde38b14610539575b005b3480156100e957600080fd5b506100f261057c565b604051808273ffffffffffffffffffffffffffffffffffffffff1673ffffffffffffffffffffffffffffffffffffffff16815260200191505060405180910390f35b34801561014057600080fd5b5061018d6004803603810190808035600019169060200190929190803573ffffffffffffffffffffffffffffffffffffffff169060200190929190803590602001909291905050506105a2565b005b34801561019b57600080fd5b506101be6004803603810190808035600019169060200190929190505050610bd5565b604051808215151515815260200191505060405180910390f35b3480156101e457600080fd5b506101ed610cda565b005b610223600480360381019080803573ffffffffffffffffffffffffffffffffffffffff169060200190929190505050610d98565b005b34801561023157600080fd5b5061023a610e70565b604051808215151515815260200191505060405180910390f35b34801561026057600080fd5b50610269610e83565b005b34801561027757600080fd5b50610280610f85565b005b34801561028e57600080fd5b50610297611045565b604051808273ffffffffffffffffffffffffffffffffffffffff1673ffffffffffffffffffffffffffffffffffffffff16815260200191505060405180910390f35b3480156102e557600080fd5b50610308600480360381019080803560001916906020019092919050505061106b565b604051808273ffffffffffffffffffffffffffffffffffffffff1673ffffffffffffffffffffffffffffffffffffffff16815260200191505060405180910390f35b34801561035657600080fd5b506103756004803603810190808035906020019092919050505061109e565b604051808573ffffffffffffffffffffffffffffffffffffffff1673ffffffffffffffffffffffffffffffffffffffff1681526020018473ffffffffffffffffffffffffffffffffffffffff1673ffffffffffffffffffffffffffffffffffffffff1681526020018381526020018215151515815260200194505050505060405180910390f35b34801561040857600080fd5b5061044b6004803603810190808035600019169060200190929190803573ffffffffffffffffffffffffffffffffffffffff16906020019092919050505061112a565b604051808215151515815260200191505060405180910390f35b34801561047157600080fd5b506104d660048036038101908080356000191690602001909291908035600019169060200190929190803573ffffffffffffffffffffffffffffffffffffffff16906020019092919080359060200190929190803590602001909291905050506111eb565b005b3480156104e457600080fd5b50610523600480360381019080803573ffffffffffffffffffffffffffffffffffffffff16906020019092919080359060200190929190505050611f5a565b6040518082815260200191505060405180910390f35b34801561054557600080fd5b5061057a600480360381019080803573ffffffffffffffffffffffffffffffffffffffff169060200190929190505050611f8a565b005b600560009054906101000a900473ffffffffffffffffffffffffffffffffffffffff1681565b60008060008060149054906101000a900460ff161515156105c257600080fd5b600060046000886000191660001916815260200190815260200160002060009054906101000a900473ffffffffffffffffffffffffffffffffffffffff1673ffffffffffffffffffffffffffffffffffffffff161415151561062357600080fd5b60008411151561063257600080fd5b60046000876000191660001916815260200190815260200160002060009054906101000a900473ffffffffffffffffffffffffffffffffffffffff16925033915082600560006101000a81548173ffffffffffffffffffffffffffffffffffffffff021916908373ffffffffffffffffffffffffffffffffffffffff16021790555060026080604051908101604052808573ffffffffffffffffffffffffffffffffffffffff1681526020018773ffffffffffffffffffffffffffffffffffffffff168152602001868152602001600115158152509080600181540180825580915050906001820390600052602060002090600402016000909192909190915060008201518160000160006101000a81548173ffffffffffffffffffffffffffffffffffffffff021916908373ffffffffffffffffffffffffffffffffffffffff16021790555060208201518160010160006101000a81548173ffffffffffffffffffffffffffffffffffffffff021916908373ffffffffffffffffffffffffffffffffffffffff1602179055506040820151816002015560608201518160030160006101000a81548160ff02191690831515021790555050509050600160008373ffffffffffffffffffffffffffffffffffffffff1673ffffffffffffffffffffffffffffffffffffffff168152602001908152602001600020600182039080600181540180825580915050906001820390600052602060002001600090919290919091505550600560009054906101000a900473ffffffffffffffffffffffffffffffffffffffff1673ffffffffffffffffffffffffffffffffffffffff1663dd62ed3e83306040518363ffffffff167c0100000000000000000000000000000000000000000000000000000000028152600401808373ffffffffffffffffffffffffffffffffffffffff1673ffffffffffffffffffffffffffffffffffffffff1681526020018273ffffffffffffffffffffffffffffffffffffffff1673ffffffffffffffffffffffffffffffffffffffff16815260200192505050602060405180830381600087803b15801561094b57600080fd5b505af115801561095f573d6000803e3d6000fd5b505050506040513d602081101561097557600080fd5b81019080805190602001909291905050508411156109f7578473ffffffffffffffffffffffffffffffffffffffff168273ffffffffffffffffffffffffffffffffffffffff167fbf182be802245e8ed88e4b8d3e4344c0863dd2a70334f089fd07265389306fcf866040518082815260200191505060405180910390a3600080fd5b600560009054906101000a900473ffffffffffffffffffffffffffffffffffffffff1673ffffffffffffffffffffffffffffffffffffffff166323b872dd8387876040518463ffffffff167c0100000000000000000000000000000000000000000000000000000000028152600401808473ffffffffffffffffffffffffffffffffffffffff1673ffffffffffffffffffffffffffffffffffffffff1681526020018373ffffffffffffffffffffffffffffffffffffffff1673ffffffffffffffffffffffffffffffffffffffff1681526020018281526020019350505050602060405180830381600087803b158015610af057600080fd5b505af1158015610b04573d6000803e3d6000fd5b505050506040513d6020811015610b1a57600080fd5b8101908080519060200190929190505050506000600260018303815481101515610b4057fe5b906000526020600020906004020160030160006101000a81548160ff0219169083151502179055508473ffffffffffffffffffffffffffffffffffffffff168273ffffffffffffffffffffffffffffffffffffffff167fd6d3eb25a413c05d8107fc49deb2789bef7f612582b2482804c0b0423b6638ee866040518082815260200191505060405180910390a3505050505050565b60008060009054906101000a900473ffffffffffffffffffffffffffffffffffffffff1673ffffffffffffffffffffffffffffffffffffffff163373ffffffffffffffffffffffffffffffffffffffff16141515610c3257600080fd5b600060046000846000191660001916815260200190815260200160002060009054906101000a900473ffffffffffffffffffffffffffffffffffffffff1673ffffffffffffffffffffffffffffffffffffffff1614151515610c9357600080fd5b60046000836000191660001916815260200190815260200160002060006101000a81549073ffffffffffffffffffffffffffffffffffffffff021916905560019050919050565b6000809054906101000a900473ffffffffffffffffffffffffffffffffffffffff1673ffffffffffffffffffffffffffffffffffffffff163373ffffffffffffffffffffffffffffffffffffffff16141515610d3557600080fd5b600060149054906101000a900460ff161515610d5057600080fd5b60008060146101000a81548160ff0219169083151502179055507f7805862f689e2f13df9f062ff482ad3ad112aca9e0847911ed832e158c525b3360405160405180910390a1565b6000809054906101000a900473ffffffffffffffffffffffffffffffffffffffff1673ffffffffffffffffffffffffffffffffffffffff163373ffffffffffffffffffffffffffffffffffffffff16141515610df357600080fd5b600060149054906101000a900460ff16151515610e0f57600080fd5b8073ffffffffffffffffffffffffffffffffffffffff166108fc3073ffffffffffffffffffffffffffffffffffffffff16319081150290604051600060405180830381858888f19350505050158015610e6c573d6000803e3d6000fd5b5050565b600060149054906101000a900460ff1681565b6000809054906101000a900473ffffffffffffffffffffffffffffffffffffffff1673ffffffffffffffffffffffffffffffffffffffff163373ffffffffffffffffffffffffffffffffffffffff16141515610ede57600080fd5b6000809054906101000a900473ffffffffffffffffffffffffffffffffffffffff1673ffffffffffffffffffffffffffffffffffffffff167ff8df31144d9c2f0f6b59d69b8b98abd5459d07f2742c4df920b25aae33c6482060405160405180910390a260008060006101000a81548173ffffffffffffffffffffffffffffffffffffffff021916908373ffffffffffffffffffffffffffffffffffffffff160217905550565b6000809054906101000a900473ffffffffffffffffffffffffffffffffffffffff1673ffffffffffffffffffffffffffffffffffffffff163373ffffffffffffffffffffffffffffffffffffffff16141515610fe057600080fd5b600060149054906101000a900460ff16151515610ffc57600080fd5b6001600060146101000a81548160ff0219169083151502179055507f6985a02210a168e66602d3235cb6db0e70f92b3ba4d376a33c0f3d9434bff62560405160405180910390a1565b600360009054906101000a900473ffffffffffffffffffffffffffffffffffffffff1681565b60046020528060005260406000206000915054906101000a900473ffffffffffffffffffffffffffffffffffffffff1681565b6002818154811015156110ad57fe5b90600052602060002090600402016000915090508060000160009054906101000a900473ffffffffffffffffffffffffffffffffffffffff16908060010160009054906101000a900473ffffffffffffffffffffffffffffffffffffffff16908060020154908060030160009054906101000a900460ff16905084565b60008060009054906101000a900473ffffffffffffffffffffffffffffffffffffffff1673ffffffffffffffffffffffffffffffffffffffff163373ffffffffffffffffffffffffffffffffffffffff1614151561118757600080fd5b8160046000856000191660001916815260200190815260200160002060006101000a81548173ffffffffffffffffffffffffffffffffffffffff021916908373ffffffffffffffffffffffffffffffffffffffff1602179055506001905092915050565b60008060008060008060149054906101000a900460ff1615151561120e57600080fd5b6000600460008c6000191660001916815260200190815260200160002060009054906101000a900473ffffffffffffffffffffffffffffffffffffffff1673ffffffffffffffffffffffffffffffffffffffff16141580156112c257506000600460008b6000191660001916815260200190815260200160002060009054906101000a900473ffffffffffffffffffffffffffffffffffffffff1673ffffffffffffffffffffffffffffffffffffffff1614155b1515611336576040517f08c379a00000000000000000000000000000000000000000000000000000000081526004018080602001828103825260138152602001807f546f6b656e2041646472657373204572726f720000000000000000000000000081525060200191505060405180910390fd5b6000871115156113ae576040517f08c379a00000000000000000000000000000000000000000000000000000000081526004018080602001828103825260108152602001807f46726f6d20416d6f756e74203c3d20300000000000000000000000000000000081525060200191505060405180910390fd5b600460008b6000191660001916815260200190815260200160002060009054906101000a900473ffffffffffffffffffffffffffffffffffffffff169450600460008a6000191660001916815260200190815260200160002060009054906101000a900473ffffffffffffffffffffffffffffffffffffffff16935033925084600560006101000a81548173ffffffffffffffffffffffffffffffffffffffff021916908373ffffffffffffffffffffffffffffffffffffffff16021790555060026080604051908101604052808773ffffffffffffffffffffffffffffffffffffffff1681526020018a73ffffffffffffffffffffffffffffffffffffffff168152602001898152602001600115158152509080600181540180825580915050906001820390600052602060002090600402016000909192909190915060008201518160000160006101000a81548173ffffffffffffffffffffffffffffffffffffffff021916908373ffffffffffffffffffffffffffffffffffffffff16021790555060208201518160010160006101000a81548173ffffffffffffffffffffffffffffffffffffffff021916908373ffffffffffffffffffffffffffffffffffffffff1602179055506040820151816002015560608201518160030160006101000a81548160ff02191690831515021790555050509150600160008473ffffffffffffffffffffffffffffffffffffffff1673ffffffffffffffffffffffffffffffffffffffff168152602001908152602001600020600183039080600181540180825580915050906001820390600052602060002001600090919290919091505550600560009054906101000a900473ffffffffffffffffffffffffffffffffffffffff1673ffffffffffffffffffffffffffffffffffffffff1663dd62ed3e84306040518363ffffffff167c0100000000000000000000000000000000000000000000000000000000028152600401808373ffffffffffffffffffffffffffffffffffffffff1673ffffffffffffffffffffffffffffffffffffffff1681526020018273ffffffffffffffffffffffffffffffffffffffff1673ffffffffffffffffffffffffffffffffffffffff16815260200192505050602060405180830381600087803b15801561170557600080fd5b505af1158015611719573d6000803e3d6000fd5b505050506040513d602081101561172f57600080fd5b810190808051906020019092919050505087111561181a578773ffffffffffffffffffffffffffffffffffffffff168373ffffffffffffffffffffffffffffffffffffffff167fbf182be802245e8ed88e4b8d3e4344c0863dd2a70334f089fd07265389306fcf896040518082815260200191505060405180910390a36040517f08c379a000000000000000000000000000000000000000000000000000000000815260040180806020018281038252600f8152602001807f416c6c6f77656e6365204572726f72000000000000000000000000000000000081525060200191505060405180910390fd5b600560009054906101000a900473ffffffffffffffffffffffffffffffffffffffff1673ffffffffffffffffffffffffffffffffffffffff166323b872dd848a8a6040518463ffffffff167c0100000000000000000000000000000000000000000000000000000000028152600401808473ffffffffffffffffffffffffffffffffffffffff1673ffffffffffffffffffffffffffffffffffffffff1681526020018373ffffffffffffffffffffffffffffffffffffffff1673ffffffffffffffffffffffffffffffffffffffff1681526020018281526020019350505050602060405180830381600087803b15801561191357600080fd5b505af1158015611927573d6000803e3d6000fd5b505050506040513d602081101561193d57600080fd5b810190808051906020019092919050505050600060026001840381548110151561196357fe5b906000526020600020906004020160030160006101000a81548160ff02191690831515021790555083600560006101000a81548173ffffffffffffffffffffffffffffffffffffffff021916908373ffffffffffffffffffffffffffffffffffffffff16021790555060026080604051908101604052808673ffffffffffffffffffffffffffffffffffffffff1681526020018573ffffffffffffffffffffffffffffffffffffffff168152602001888152602001600115158152509080600181540180825580915050906001820390600052602060002090600402016000909192909190915060008201518160000160006101000a81548173ffffffffffffffffffffffffffffffffffffffff021916908373ffffffffffffffffffffffffffffffffffffffff16021790555060208201518160010160006101000a81548173ffffffffffffffffffffffffffffffffffffffff021916908373ffffffffffffffffffffffffffffffffffffffff1602179055506040820151816002015560608201518160030160006101000a81548160ff02191690831515021790555050509050600160008973ffffffffffffffffffffffffffffffffffffffff1673ffffffffffffffffffffffffffffffffffffffff168152602001908152602001600020600182039080600181540180825580915050906001820390600052602060002001600090919290919091505550600560009054906101000a900473ffffffffffffffffffffffffffffffffffffffff1673ffffffffffffffffffffffffffffffffffffffff1663dd62ed3e89306040518363ffffffff167c0100000000000000000000000000000000000000000000000000000000028152600401808373ffffffffffffffffffffffffffffffffffffffff1673ffffffffffffffffffffffffffffffffffffffff1681526020018273ffffffffffffffffffffffffffffffffffffffff1673ffffffffffffffffffffffffffffffffffffffff16815260200192505050602060405180830381600087803b158015611c6357600080fd5b505af1158015611c77573d6000803e3d6000fd5b505050506040513d6020811015611c8d57600080fd5b8101908080519060200190929190505050871115611d78578273ffffffffffffffffffffffffffffffffffffffff168873ffffffffffffffffffffffffffffffffffffffff167fbf182be802245e8ed88e4b8d3e4344c0863dd2a70334f089fd07265389306fcf886040518082815260200191505060405180910390a36040517f08c379a000000000000000000000000000000000000000000000000000000000815260040180806020018281038252600f8152602001807f416c6c6f77656e6365204572726f72000000000000000000000000000000000081525060200191505060405180910390fd5b600560009054906101000a900473ffffffffffffffffffffffffffffffffffffffff1673ffffffffffffffffffffffffffffffffffffffff166323b872dd8985896040518463ffffffff167c0100000000000000000000000000000000000000000000000000000000028152600401808473ffffffffffffffffffffffffffffffffffffffff1673ffffffffffffffffffffffffffffffffffffffff1681526020018373ffffffffffffffffffffffffffffffffffffffff1673ffffffffffffffffffffffffffffffffffffffff1681526020018281526020019350505050602060405180830381600087803b158015611e7157600080fd5b505af1158015611e85573d6000803e3d6000fd5b505050506040513d6020811015611e9b57600080fd5b8101908080519060200190929190505050506000600260018303815481101515611ec157fe5b906000526020600020906004020160030160006101000a81548160ff0219169083151502179055508773ffffffffffffffffffffffffffffffffffffffff168373ffffffffffffffffffffffffffffffffffffffff167fd6d3eb25a413c05d8107fc49deb2789bef7f612582b2482804c0b0423b6638ee896040518082815260200191505060405180910390a350505050505050505050565b600160205281600052604060002081815481101515611f7557fe5b90600052602060002001600091509150505481565b6000809054906101000a900473ffffffffffffffffffffffffffffffffffffffff1673ffffffffffffffffffffffffffffffffffffffff163373ffffffffffffffffffffffffffffffffffffffff16141515611fe557600080fd5b611fee81611ff1565b50565b600073ffffffffffffffffffffffffffffffffffffffff168173ffffffffffffffffffffffffffffffffffffffff161415151561202d57600080fd5b8073ffffffffffffffffffffffffffffffffffffffff166000809054906101000a900473ffffffffffffffffffffffffffffffffffffffff1673ffffffffffffffffffffffffffffffffffffffff167f8be0079c531659141344cd1fd0a4f28419497f9722a3daafe3b4186f6b6457e060405160405180910390a3806000806101000a81548173ffffffffffffffffffffffffffffffffffffffff021916908373ffffffffffffffffffffffffffffffffffffffff160217905550505600a165627a7a7230582066903b8cf06032a6bddd1d7f28678924c152564f291c6d6805837f66ea6db4000029",
  "source": "pragma solidity ^0.4.24;\n\nimport \"../node_modules/zeppelin-solidity/contracts/token/ERC20/ERC20.sol\";\nimport \"../node_modules/zeppelin-solidity/contracts/lifecycle/Pausable.sol\";\n\ncontract TokenExchange is Ownable, Pausable {\n\n    /**  \n   * @dev Details of each transfer * @param contract_ contract address of ER20 token to transfer * @param to_ receiving account * @param amount_ number of tokens to transfer to_ account * @param failed_ if transfer was successful or not */\n    struct Transfer {\n        address contract_;\n        address to_;\n        uint amount_;\n        bool failed_;\n    }\n    /**  \n   * @dev a mapping from transaction ID's to the sender address * that initiates them. Owners can create several transactions */\n    mapping(address => uint[]) public transactionIndexesToSender;\n\n\n    /**  \n   * @dev a list of all transfers successful or unsuccessful */\n    Transfer[] public transactions;\n\n    address public owner;\n\n    /**  \n   * @dev list of all supported tokens for transfer * @param string token symbol * @param address contract address of token */\n    mapping(bytes32 => address) public tokens;\n\n    ERC20 public ERC20Interface;\n\n    /**  \n   * @dev Event to notify if transfer successful or failed * after account approval verified */\n    event TransferSuccessful(address indexed from_, address indexed to_, uint256 amount_);\n\n    event TransferFailed(address indexed from_, address indexed to_, uint256 amount_);\n\n    constructor() public {\n        owner = msg.sender;\n    }\n    /**  \n   * @dev add address of token to list of supported tokens using * token symbol as identifier in mapping */\n    function addNewToken(bytes32 symbol_, address address_) public onlyOwner returns(bool) {\n        tokens[symbol_] = address_;\n\n        return true;\n    }\n    /**  \n   * @dev remove address of token we no more support */\n    function removeToken(bytes32 symbol_) public onlyOwner returns(bool) {\n        require(tokens[symbol_] != 0x0);\n\n        delete (tokens[symbol_]);\n\n        return true;\n    }\n\n    \n    /**  \n   * @dev method that handles transfer of ERC20 tokens to other address * it assumes the calling address has approved this contract * as spender * @param symbol_ identifier mapping to a token contract address * @param to_ beneficiary address * @param amount_ numbers of token to transfer */\n    function transferTokens(bytes32 symbol_, address to_, uint256 amount_) public whenNotPaused{\n        require(tokens[symbol_] != 0x0);\n        require(amount_ > 0);\n\n        address contract_ = tokens[symbol_];\n        address from_ = msg.sender;\n\n        ERC20Interface = ERC20(contract_);\n\n        uint256 transactionId = transactions.push(\n            Transfer({\n                contract_: contract_,\n                to_: to_,\n                amount_: amount_,\n                failed_: true\n            })\n        );\n        transactionIndexesToSender[from_].push(transactionId - 1);\n\n        if (amount_ > ERC20Interface.allowance(from_, address(this))) {\n            emit TransferFailed(from_, to_, amount_);\n            revert();\n        }\n        ERC20Interface.transferFrom(from_, to_, amount_);\n\n        transactions[transactionId - 1].failed_ = false;\n\n        emit TransferSuccessful(from_, to_, amount_);\n    }\n    \n    \n    function exchangeToken(bytes32 fromSymbol_, bytes32 toSymbol_, address toUser_, uint256 fromAmount_, uint256 toAmount_ ) public whenNotPaused{\n        require(tokens[fromSymbol_] != 0x0 && tokens[toSymbol_] != 0x0, \"Token Address Error\" );\n        require(fromAmount_ > 0, \"From Amount <= 0\");\n\n        address fromToken_ = tokens[fromSymbol_];\n        address toToken_ = tokens[toSymbol_];\n        address fromUser_ = msg.sender;\n\n        ERC20Interface = ERC20(fromToken_);\n\n        uint256 fromTxID= transactions.push(\n            Transfer({\n                contract_: fromToken_,\n                to_: toUser_,\n                amount_: fromAmount_,\n                failed_: true\n            })\n        );\n        transactionIndexesToSender[fromUser_].push(fromTxID - 1);\n\n        if (fromAmount_ > ERC20Interface.allowance(fromUser_, address(this))) {\n            emit TransferFailed(fromUser_, toUser_, fromAmount_);\n            revert(\"Allowence Error\");\n        }\n        ERC20Interface.transferFrom(fromUser_, toUser_, fromAmount_);\n\n        transactions[fromTxID - 1].failed_ = false;\n\n        ERC20Interface = ERC20(toToken_);\n\n        uint256 toTxID = transactions.push(\n            Transfer({\n                contract_: toToken_,\n                to_: fromUser_,\n                amount_: toAmount_,\n                failed_: true\n            })\n        );\n        transactionIndexesToSender[toUser_].push(toTxID - 1);\n\n        if (fromAmount_ > ERC20Interface.allowance(toUser_, address(this))) {\n            emit TransferFailed(toUser_, fromUser_, toAmount_);\n            revert(\"Allowence Error\");\n        }\n        ERC20Interface.transferFrom(toUser_, fromUser_, toAmount_);\n        transactions[toTxID - 1].failed_ = false;\n\n        emit TransferSuccessful(fromUser_, toUser_, fromAmount_);\n    }\n    /**  \n   * @dev allow contract to receive funds */\n    function() public payable { }\n\n    /**  \n   * @dev withdraw funds from this contract * @param beneficiary address to receive ether */\n    function withdraw(address beneficiary) public payable onlyOwner whenNotPaused {\n        beneficiary.transfer(address(this).balance);\n    }\n}",
  "sourcePath": "D:\\erc_SmartContract_practice\\ethFCoin\\contracts\\TokenExchange.sol",
  "compiler": {
    "name": "solc",
    "version": "0.4.24+commit.e67f0147.Emscripten.clang"
  },
  "schemaVersion": "2.0.1",
  "updatedAt": "2018-11-03T17:15:51.220Z"
}